:040000008A116A2FC8
:100ED40083018A11C22F83120313A00020089900F2
:100EE400732F83160313981C782F792F732F7A2F5F
:100EF40008002430831603139800803083120313F0
:100F0400980019308316031399008B170B178C1252
:100F14000800831203132108A301A3072008A201D8
:100F2400A20723082204031D982F992F9B2FC12F5A
:100F3400C12F9830A4000030A50025082404031D07
:100F4400A42FA52FA72FB42FB42F0130A402003053
:100F5400031CA503A50225082404031DB22FB32FE7
:100F6400A72FB42F0130A2020030031CA303A30255
:100F740023082204031DBF2FC02F9B2FC12F08005D
:100F84002F308316031385000730860080308700D6
:100F94008312031386010B128A117B278A11D22F25
:100FA400003083120313061801308A116D278A1149
:100FB400003083120313861801308A116D278A11B9
:100FC400003083120313061901308A116D278A1128
:100FD400FA3083120313A0000030A1008A118B277A
:100FE4008A11FA3083120313A0000030A1008A1181
:0C0FF4008B278A11D22FD22F8A110028DF
:02400E00323B43
:00000001FF
