:040000008A11112828
:10000800FE00030E83120313A1000408A2000A08CD
:10001800A3007F08A4008A15902D8A15B02D83129D
:10002800031306181828192882288316031327088B
:10003800803AFF0080307F02031D24283D302602CD
:10004800031827282828822883120313E201E301D2
:100058005E1F2F283028682861086004031D352892
:10006800362842286E08AB00AC012B08E8002C08A3
:10007800E9000130E0000030E10042286809AB00E7
:100088006909AC00AB0A0319AC0A6E082B07A50076
:100098002C0803182C0AA6008A1549258A118312F0
:1000A80003132608803AFF0080307F02031D5E2874
:1000B8001E302502031C61286228CA28E3308312F7
:1000C8000313DC05CA28CA28831603132708803AB5
:1000D800FF0080307F02031D73283A302602031880
:1000E80076287728CA28831203135C08E33908386E
:1000F800DC00E001E101CA28CA28CA2883120313D8
:10010800061C87288828CA280130A5000030A600C8
:100118008A15D4258A118312031363086204031D08
:1001280096289728A3286E08AB00AC012B08E60098
:100138002C08E7000130E2000030E300A32866093C
:10014800AB006709AC00AB0A0319AC0A6E082B07B1
:10015800A5002C0803182C0AA6008A1549258A111F
:10016800831203132608803AFF0080307F02031DA4
:10017800BF281E302502031CC228C328CA28E33022
:1001880083120313DC05CA28CA28CA280800831268
:1001980003136A1CD028D128D828861BD428D52830
:1001A800D9288617D928D9288613EA1CDC28DD28FF
:1001B800DF280616E02806126A1DE328E428EB2843
:1001C800861AE728E828EC288616EC28EC288612F8
:1001D800EA1DEF28F028F728061BF328F428F92849
:1001E8000617F928F9280613F9280800FA34003404
:0601F8003C343D341434D8
:10020000FF1B0A2983137F1883170008840A031928
:10021000FF0A08007F087F398A000408840A03194E
:10022000FF0A8200DA34FF34DB34FF34DC34FF347D
:10023000DE34FF34DF34FF34E034FF34E134FF34A4
:10024000E234FF34E334FF34E434FF34E534FF3484
:10025000E634FF34E734FF34E834FF34E934FF3464
:10026000EA34FF34EB34FF34EB34FF34EC34FF3446
:10027000ED34FF34EE34FF34EF34FF34EF34FF3429
:10028000F034FF34F134FF34F134FF34F234FF340E
:10029000F334FF34F334FF34F434FF34F534FF34F3
:1002A000F534FF34F634FF34F734FF34F734FF34D9
:1002B000F834FF34F834FF34F934FF34FA34FF34BF
:1002C000FA34FF34FB34FF34FB34FF34FC34FF34A6
:1002D000FC34FF34FD34FF34FD34FF34FE34FF348E
:1002E000FE34FF34FF34FF34FF34FF340034003475
:1002F000003400340134003401340034023400345A
:100300000234003403340034033400340434003441
:100310000434003405340034053400340634003429
:100320000634003407340034073400340834003411
:1003300008340034083400340934003409340034FB
:100340000A3400340A3400340B3400340B340034E3
:100350000B3400340C3400340C3400340D340034CD
:100360000D3400340E3400340E3400340E340034B6
:100370000F3400340F34003410340034103400349F
:100380001134003411340034113400341234003488
:100390001234003413340034133400341334003472
:1003A000143400341434003415340034153400345B
:1003B0001534003416340034163400341734003445
:1003C000173400341734003418340034183400342F
:1003D0001934003419340034193400341A34003418
:1003E0001A3400341B3400341B3400341B34003402
:1003F0001C3400341C3400341D3400341D340034EB
:100400001D3400341E3400341E3400341F340034D4
:100410001F3400341F3400342034003420340034BE
:1004200021340034213400342134003422340034A7
:100430002234003423340034233400342434003490
:10044000243400342434003425340034253400347A
:100450002634003426340034273400342734003462
:10046000273400342834003428340034293400344C
:10047000293400342A3400342A3400342A34003435
:100480002B3400342B3400342C3400342C3400341E
:100490002D3400342D3400342E3400342E34003406
:1004A0002F3400342F3400343034003430340034EE
:1004B00031340034313400343234003432340034D6
:1004C00033340034333400343434003434340034BE
:1004D00035340034353400343634003436340034A6
:1004E000373400343734003438340034383400348E
:1004F000393400343A3400343A3400343B34003474
:100500003B3400343C3400343D3400343D3400345A
:100510003E3400343F3400343F340034403400343F
:100520004134003441340034423400344334003424
:100530004334003444340034453400344634003409
:1005400047340034473400344834003449340034EC
:100550004A3400344B3400344C3400344D340034CD
:100560004E3400344F3400345034003451340034AD
:10057000523400345334003454340034563400348C
:1005800057340034583400345A3400345B34003467
:100590005D3400345E34003460340034623400343E
:1005A0006434003466340034693400346B3400340D
:1005B0006E340034713400347434003479340034CF
:1005C0007D34003483340034083400340C34003477
:1005D000043400340634003402340034033400346C
:1005E00001340034093400348312031386018A1560
:1005F0001F258A118316031381172F3085000730BA
:100600008600803087008312031307160B128B11AC
:100610008A1539258A118A112E268A110F2B8312E9
:1006200003130619142B152B1A2B861C182B192BA8
:10063000232B1A2B78305602031C1F2B202B252B23
:100640005E17252B252B5E13252B8A1149258A1130
:100650008A1510258A118A11CB208A11831203135F
:10066000D101D2015208803AFF0080307F02031D81
:100670003B2B05305102031C3E2B3F2B412B0F2BF4
:100680000F2B003083120313D0000030CF00003056
:10069000CE000030CD005208A601A6075108A501E2
:1006A000A5078A155D258A1183120313C100C201B3
:1006B000C301C4014408D0004308CF004208CE0063
:1006C0004108CD00043051065204031D682B692BEC
:1006D000102C5008CC004F08CB004E08CA004D0823
:1006E000C9000030C1002F30C2000030C30000300C
:1006F000C4004C08A8004B08A7004A08A6004908F7
:10070000A5000030AC000030AB000030AA0025305E
:10071000A9008A11B0278A11831203132509C50085
:100720002609C6002709C7002809C800C50A0319F9
:10073000C60A0319C70A0319C80A4508C1074608AB
:100740000318460FA42BA52BC20747080318470F11
:10075000AA2BAB2BC30748080318480AC407440850
:10076000B5004308B4004208B3004108B2004C0889
:10077000A8004B08A7004A08A6004908A5000030B9
:10078000AC000030AB000A30AA000030A9008A118A
:10079000B0278A11831203132808B9002708B8006C
:1007A0002608B7002508B6008A1558278A11831233
:1007B00003133508D0003408CF003308CE003208C8
:1007C000CD004E08C2004D08C1000130FF000310EB
:1007D000C10DC20DFF0BE72B4108D83EC3004208F4
:1007E0000318013EFF3EC40081304407FF00123071
:1007F000430784000318FF0A8A1100218A11C500EB
:100800008A1100218A11C6005108C7004707A03E7F
:100810008400450883138000840A460880003F2C2A
:100820004E08C2004D08C1000130FF000310C10D89
:10083000C20DFF0B162C4108D83EC3004208031816
:10084000013EFF3EC40081304407FF0012304307E1
:1008500084000318FF0A8A1100218A11C5008A1139
:1008600000218A11C6005108C7004707A03E840036
:10087000450883138000840A460880003F2C01301D
:10088000D1070318D20A0030D2075208803AFF007D
:1008900080307F02031D4E2C05305102031C512C69
:1008A000522C412B0F2B0F2B0F2B8A111128831247
:1008B00003135C0CA500250C07390038031D612CBF
:1008C000622C662C8A15D8268A11482D83120313B0
:1008D0005C0CA500250C0739003A0319702C712C0B
:1008E000482D5D1D742C752CDE2C5D1E782C792C0A
:1008F000912C1E305802031C7E2C7F2C842C5D1200
:100900005D11D8016A14482D19305802031C892C36
:100910008A2C8C2CEA11482D6A106A15482D482D16
:10092000482D12305A02C13003195902031C992C68
:100930009A2C9F2C5D16D8010314D80D482D003039
:100940005A02793003195902031CA72CA82CBE2C7B
:10095000831603132108803AFF0080307F02031DB5
:10096000B32C0B302002031CB62CB72CBE2C8312E8
:1009700003135D16D8010314D80D482D00308312DF
:1009800003135A023D3003195902031CC82CC92C09
:10099000CB2C6A14482D00305A021F30031959021B
:1009A000031CD32CD42CD62CEA15482D6A106A11BE
:1009B000482D482D482D482D482D482DB43057023C
:1009C0000318E32CE42CE92CD708031DE82CE92CB0
:1009D000482DEA115B083F39A50028302502031C89
:1009E000F22CF32C0F2D83160313A11FF82CF92CD6
:1009F000482D2308803AFF0080307F02031D022D1E
:100A0000043022020318052D062D482D83120313EE
:100A10005D150130D9000030DA00482D482D1E3018
:100A20005302031C142D152D2D2D6A14D608031DF9
:100A30001A2D1B2D1F2DD6010314D60D1F2DD701E6
:100A40005B083F390038031D262D272D482D5B08F4
:100A5000C0390138DB00482D482D19305302031CE2
:100A6000322D332D352D6A15482DEA14D401D501C8
:100A7000D308031D3C2D3D2D482DD3010314D30D68
:100A8000482D482D482D482D482D482D482D482DBE
:100A90000800831203135C1C4E2D4F2D2D2E5C106D
:100AA0000130EF026F081F3A031D572D582D8A2D74
:100AB000103087060030061801308A152B258A1160
:100AC000003083120313861801308A152B258A11F2
:100AD000003083120313061901308A152B258A1161
:100AE00021308A152B258A1100308A152B258A1171
:100AF0000D308A152B258A110A308A152B258A116B
:100B0000643083120313A5000030A6008A15D42593
:100B10008A119C2D6A188D2D8E2D9C2D6F081F3AE1
:100B2000031D932D942D9C2D103087069C2D9C2DFC
:100B30009C2D9C2D9C2D9C2D83120313EF08031DCF
:100B4000A22DA32D2D2EB101B2013208803AFF0053
:100B500080307F02031DAE2D05303102031CB12D04
:100B6000B22DB42DE42DE42D8312031331088A1520
:100B70002B258A11831203133108B0003007A03EE1
:100B80008400831300088A152B258A1122308A15C8
:100B90002B258A1100308A152B258A1101308312EA
:100BA0000313B1070318B20A0030B2073208803AC3
:100BB000FF0080307F02031DDF2D05303102031C52
:100BC000E22DE32DB42DE42D23308A152B258A1137
:100BD000831203135C0CB000300C07398A152B25E7
:100BE0008A11831203135E0EB000B00C300C013971
:100BF0008A152B258A113D3083120313B00030086B
:100C0000EF000130EE028A1567268A118312031362
:100C1000EE08031D0C2E0D2E2D2E3C30B00030089A
:100C2000EE000130F0028A1573258A118312031336
:100C3000F008031D1C2E1D2E2D2E3C30B000300858
:100C4000F0006A1C242E252E2D2E8A11F6268A11DC
:100C50002D2E2D2E2D2E2D2E2D2E080001308312FF
:100C60000313AD000030AE00E43084008230FF009A
:100C70008A1100218A118700C830A5000030A60023
:100C80008A15D4258A115D2E013083120313A50025
:100C90000030A6008A150B268A1101308312031337
:100CA000AD070318AE0A0030AE070830A5000030CB
:100CB000A6008A15D4258A115D2E831203132E08EF
:100CC000803AFF0080307F02031D682EFA302D022B
:100CD000031C6B2E6C2E442E872E872E0030831221
:100CE0000313A5000030A6008A150B268A110130D7
:100CF00083120313AD070318AE0A0030AE070830A5
:100D0000A5000030A6008A15D4258A11872E8312EB
:100D100003132E08803AFF0082307F02031D922EBB
:100D200030302D02031C952E962E6E2E972E831298
:100D300003136408AC002C07E43E840082300318DF
:100D4000013EFF008A1100218A118700C830A500EA
:100D50000030A6008A15D4258A1183120313AD0131
:100D6000AE01CB2E013083120313A5000030A60084
:100D70008A150B268A11013083120313AD0703185D
:100D8000AE0A0030AE070830A5000030A6008A1574
:100D9000D4258A11CB2E831203132E08803AFF002C
:100DA00080307F02031DD62EFA302D02031CD92E6F
:100DB000DA2EB22EDB2E831203136408AC002C074C
:100DC000E43E840082300318013EFF008A110021B6
:100DD0008A118700F030A5000030A6008A15D425BE
:100DE0008A11F03083120313870008008312031363
:100DF0006D08803AFF0080307F02031D012F97307D
:100E00006C02031C042F052FAF2F831203136D08F0
:100E1000803AFF0081307F02031D102F90306C025A
:100E20000318132F142FAF2F831603132008053E2A
:100E300083120313AC008316031321080318013E29
:100E4000003E83120313AD00AC09AD09AC0A0319CF
:100E5000AD0A831603132408831203132C07AE0074
:100E60008316031325080318250A831203132D077D
:100E7000AF002F08803AFF0080307F02031D422F11
:100E800001302E02031C452F462F872F632F632F1F
:100E9000013083120313A5000030A6008A150B262B
:100EA0008A11083083120313A5000030A6008A15AA
:100EB000D4258A11FF3083120313AE070318AF0A3B
:100EC000FF30AF07632F831203132F082E0403197B
:100ED0006A2F6B2F482F912F912F872F0130A5005C
:100EE0000030A6008A150B268A11083083120313DE
:100EF000A5000030A6008A15D4258A11013083127E
:100F00000313AE070318AF0A0030AF07872F831211
:100F100003132F082E0403198E2F8F2F6E2F912F5E
:100F2000912F6408AC002C07E43E84008230031843
:100F3000013EFF008A1100218A118700F030A500D0
:100F40000030A6008A15D4258A1183120313870165
:100F50002E08EC070318ED0A2F08ED07AF2F080045
:100F6000003083120313B1000030B0000030AF0036
:100F70000030AE00BB2F251CBE2FBF2FD72F290856
:100F8000AE072A0803110318013E0319C82FAF0743
:100F90002B0803110318013E0319CF2FB0072C08AB
:100FA00003110318013E0319D62FB107D72F0130C3
:100FB000AD000310A90DAA0DAB0DAC0DAD0BD92FD3
:100FC00001300310A80CA70CA60CA50CFF3E031DB6
:100FD000E12F2808270426042504031DF02FF12FF4
:100FE000BB2FF22F3108A8003008A7002F08A60059
:080FF0002E08A500FB2F0800EC
:101A20008A1113208A158A1157248A150800640028
:101A30008001840A0406031900340406182D831655
:101A40000313811281150B118B16AA308312031315
:101A500081008B17080083120313A5002508990045
:101A6000312D83160313981C362D372D312D382D2B
:101A70000800243083160313980080308312031368
:101A8000980019308316031399008B170B178C12CB
:101A9000080083120313A61F4E2D4F2D5C2D250920
:101AA000A7002609A800A70A0319A80A2708A50065
:101AB0002808A6005C2D5C2D080002308316031355
:101AC0009F004130831203139F002508A7002708B9
:101AD0009F041F146B2D1F196E2D6F2D6B2D702DF4
:101AE0001E08722D0800831203135B083F39003A69
:101AF00003197B2D7C2D8F2D5B083F39A5002830E5
:101B000025020318842D852D8F2D5B083F39A500F4
:101B1000A50A5B082506C0392506DB008F2D0800C5
:101B20000B1D932D942DA52DAA3081000B11013092
:101B3000A0002008EB07A5306B02031CA02DA12DEF
:101B4000A52D5C14EB01A52DA52D2408FF0023086D
:101B50008A0022088400210E8300FE0E7E0E0900FA
:101B60008313533084006C308A1517258A15A030F2
:101B70008400B0308A1517258A158A11FA208A1533
:101B8000EC008A11FB208A15ED008A11FC208A15D1
:101B9000EE008A11FD208A15EF008A11FE208A15B9
:101BA000F00083018A11F42A831203132608A80186
:101BB000A8072508A701A70728082704031DE12D6A
:101BC000E22DE42D0A2E0A2E9830A9000030AA003A
:101BD0002A082904031DED2DEE2DF02DFD2DFD2DE0
:101BE0000130A9020030031CAA03AA022A08290412
:101BF000031DFB2DFC2DF02DFD2D0130A702003023
:101C0000031CA803A80228082704031D082E092E78
:101C1000E42D0A2E080083120313AA01AB01260843
:101C200025040319142E152E3D2E6408A70027073E
:101C3000E43E840082300318013EFF008A11002137
:101C40008A15A8008A1100218A15A9002808AA046B
:101C50002908AB040130E4070318E50A0030E50762
:101C60002A088700083064066504031D382E392EC3
:101C7000662EE401E501662E662E6408A70027079C
:101C8000E43E840082300318013EFF008A110021E7
:101C90008A15AA008A1100218A15AB00FF30E407DB
:101CA0000318E50AFF30E5072A088700FF306506BC
:101CB000031D5C2EFF306406031D5F2E602E662E12
:101CC0000730E4000030E500662E662E080083121F
:101CD00003135308031D6D2E782E1E305302031874
:101CE000722E732E782E0130A5002508D307782E8A
:101CF0000130533E840083130008840A0004031952
:101D0000822E832E922E0130550268300319540220
:101D100003188B2E8C2E922E0130D4070318D50A6F
:101D20000030D5075608031D962EA12E7830560296
:101D300003189B2E9C2EA12E0130A5002508D60746
:101D4000A12E5708031DA52EB02EB430570203183C
:101D5000AA2EAB2EB02E0130A5002508D707B02E35
:101D60005808031DB42EBF2E1E3058020318B92E7A
:101D7000BA2EBF2E0130A5002508D807BF2E063089
:101D8000533E84000008840A00040319C82EC92E9B
:101D9000D72E12305A02C030031959020318D12E1F
:101DA000D22ED72E0130A5002508D807D72E08003F
:101DB0000130831203135502683003195402031CC7
:101DC000E22EE32E142F831603132308803AFF001C
:101DD00080307F02031DEE2E02302202031CF12E02
:101DE000F22EF92E013083120313D4000030D500F7
:101DF000572F83120313EA14D308031D002F012F5A
:101E0000052FD3010314D30D572F3C305302031C6D
:101E10000A2F0B2F572FD3010130D4000030D500EB
:101E2000572F572F572F572F78305602031C192F33
:101E30001A2F262F6A10D601D708031D202F212F15
:101E4000572FD7010314D70D572F572F2330570281
:101E500003182B2F2C2F362FD608031D302F312F90
:101E6000572FD708031D352F362F572FEA10D301D0
:101E700055085404031D3D2F3E2F422F0130D4003E
:101E80000030D500283057020318472F482F522F13
:101E9000D608031D4C2F4D2F572FD708031D512F48
:101EA000522F572F6A11572F572F572F572F080090
:101EB00083120313BC01B51F5E2F5F2F6E2FB20973
:101EC000B309B409B509B20A0319B30A0319B40A6C
:101ED0000319B50ABC010314BC0D6E2FB91F712F75
:101EE000722F822FB609B709B809B909B60A0319C2
:101EF000B70A0319B80A0319B90A0130BA003A0837
:101F0000BC06822F0030C0000030BF000030BE0091
:101F10000030BD0035083404330432040319912F16
:101F2000922FE62FBB010314BB0DA42F0130BA0082
:101F30000310B20DB30DB40DB50DBA0B982F0130CF
:101F4000BA003A08BB07A42FB51FA72FA82F962FBA
:101F5000AA2FAA2F0130BA000310BD0DBE0DBF0D70
:101F6000C00DBA0BAC2F35083902031DC12F340840
:101F70003802031DC12F33083702031DC12F320859
:101F80003602031CC42FC52FD52F3208B6023308E2
:101F9000031C330FB7023408031C340FB802350892
:101FA000031C350FB9023D14D52F01300310B50CB9
:101FB000B40CB30CB20CFF3E031DD62F0130BB0294
:101FC000031DE32FE42FAA2FE62FE62F3C08031D65
:101FD000EA2FF62FBD09BE09BF09C009BD0A0319C2
:101FE000BE0A0319BF0A0319C00AF62F4008B5003C
:101FF0003F08B4003E08B3003D08B200FF2F0800C0
:00000001FF
