:040000008A11112828
:10000800FE00030E83120313A1000408A2000A08CD
:10001800A3007F08A4008A15392A8A11132883139C
:100028005630840071308A15ED218A11A030840081
:10003800B0308A15ED218A118A15E2218A11F10062
:100048008A15E3218A11F2008A15E4218A11F30046
:100058008A15E5218A11F4008A15E621F500830145
:100068008A15182B831203135F0CA600260C073978
:10007800003A031D42288A156124080083120313DD
:100088005F0CA600260C0739003A03190800601D0A
:10009800A728EE308A11F6208A11DF308A11F6205F
:1000A8008A1183120313601E6B281E305B02031C27
:1000B800622860126011DB016F14080019305B02BE
:1000C800031C6828EF1108006F106F150800123024
:1000D8005D02C13003195C02031C76286016DB013F
:1000E800DB0A080000305D02793003195C02031C4A
:1000F8009028831603132108803AFF0080307F027E
:10010800031D88280B302002031C90288312031338
:100118006016DB01DB0A08000030831203135D025E
:100128003D3003195C02031C9B286F140800003043
:100138005D021F3003195C02031CA428EF15080098
:100148006F106F110800B4305A020318AE285A080D
:10015800031D0800EF115E083F39A600283026026B
:10016800031CD228831603132108803AFF007F302E
:100178007F02031DC128FF30200203180800023047
:10018800A03E8400840A8313801F0800831203138F
:1001980060150130DC000030DD0008001E3056021A
:1001A800031CE7286F145908031DDC28D901D90A54
:1001B800DA015E083F39003A031D08005E08C039BD
:1001C8000138DE00080019305602031CED286F15AF
:1001D8000800EF14D701D8015608031D0800D601FE
:1001E800D60A080083120313A50025089900831670
:1001F800031398180800FB28FF1B0A2983137F188C
:1002080083170008840A0319FF0A08007F087F394A
:100218008A000408840A0319FF0A8200DA34FF34CA
:10022800DB34FF34DC34FF34DE34FF34DF34FF34B6
:10023800E034FF34E134FF34E234FF34E334FF3494
:10024800E434FF34E534FF34E634FF34E734FF3474
:10025800E834FF34E934FF34EA34FF34EB34FF3454
:10026800EB34FF34EC34FF34ED34FF34EE34FF3438
:10027800EF34FF34EF34FF34F034FF34F134FF341B
:10028800F134FF34F234FF34F334FF34F334FF3401
:10029800F434FF34F534FF34F534FF34F634FF34E6
:1002A800F734FF34F734FF34F834FF34F834FF34CC
:1002B800F934FF34FA34FF34FA34FF34FB34FF34B2
:1002C800FB34FF34FC34FF34FC34FF34FD34FF349A
:1002D800FD34FF34FE34FF34FE34FF34FF34FF3482
:1002E800FF34FF3400340034003400340134003467
:1002F800013400340234003402340034033400344E
:100308000334003404340034043400340534003435
:10031800053400340634003406340034073400341D
:100328000734003408340034083400340834003406
:1003380009340034093400340A3400340A340034EF
:100348000B3400340B3400340B3400340C340034D8
:100358000C3400340D3400340D3400340E340034C1
:100368000E3400340E3400340F3400340F340034AB
:100378001034003410340034113400341134003493
:10038800113400341234003412340034133400347D
:100398001334003413340034143400341434003467
:1003A8001534003415340034153400341634003450
:1003B800163400341734003417340034173400343A
:1003C8001834003418340034193400341934003423
:1003D800193400341A3400341A3400341B3400340D
:1003E8001B3400341B3400341C3400341C340034F7
:1003F8001D3400341D3400341D3400341E340034E0
:100408001E3400341F3400341F3400341F340034C9
:1004180020340034203400342134003421340034B2
:10042800213400342234003422340034233400349C
:100438002334003424340034243400342434003485
:10044800253400342534003426340034263400346E
:100458002734003427340034273400342834003457
:100468002834003429340034293400342A34003440
:100478002A3400342A3400342B3400342B3400342A
:100488002C3400342C3400342D3400342D34003412
:100498002E3400342E3400342F3400342F340034FA
:1004A80030340034303400343134003431340034E2
:1004B80032340034323400343334003433340034CA
:1004C80034340034343400343534003435340034B2
:1004D800363400343634003437340034373400349A
:1004E8003834003438340034393400343A34003481
:1004F8003A3400343B3400343B3400343C34003468
:100508003D3400343D3400343E3400343F3400344C
:100518003F34003440340034413400344134003432
:100528004234003443340034433400344434003417
:1005380045340034463400344734003447340034FA
:1005480048340034493400344A3400344B340034DD
:100558004C3400344D3400344E3400344F340034BD
:10056800503400345134003452340034533400349D
:10057800543400345634003457340034583400347A
:100588005A3400345B3400345D3400345E34003453
:100598006034003462340034643400346634003427
:1005A800693400346B3400346E34003471340034F0
:1005B80074340034793400347D34003483340034A6
:1005C800083400340C340034043400340634003465
:1005D8000234003403340034013400340934003464
:1005E80083120313D2016408AC006308AB008A15B8
:1005F8008D228A1183120313C8004808D2006303AE
:100608006404031D4E2B2B30AB000030AC005208A5
:10061800C800C9014808A5004908A6001E30A7005F
:100628000030A8008A15D1228A11831203132608E4
:10063800AE002508AD008A1506248A11831203131B
:100648002B08CA002C08CB000310CA0DCB0D4A0892
:10065800D43ECC004B080318013EFF3ECD0081304C
:100668004D07FF0012304C0784000318FF0A8A1157
:1006780000218A11CE008A110021CF006308D00022
:100688005007A03E84004E0883138000840A4F0858
:1006980080000800043063066404031D032C52081C
:1006A800C8004808D1005108C800C9014808A50079
:1006B8004908A6000B30A7000030A8008A15D122EF
:1006C8008A11831203132508013EAD00260803187A
:1006D800013EFF3EAE008A15F4228A1183120313ED
:1006E8002D08D3002E08D4002F08D50051088A15EC
:1006F80070228A11831203132D08B5002E08B60044
:100708002F08B7005308B8005408B9005508BA00B4
:100718008A15B9258A11831203133508D3003608C0
:10072800D4003708D5000030B5002030B60041307D
:10073800B7005308B8005408B9005508BA008A151C
:10074800B9258A11831203133508D3003608D4005B
:100758003708D5000030AD007F30AE004330AF0021
:100768005308B0005408B1005508B2008A112B276D
:100778008A11831203132D08D3002E08D4002F08E2
:10078800D5005308B0005408B1005508B200003035
:10079800AD00A030AE00C130AF008A112C248A1100
:1007A800831203132D08BA002E08BB002F08BC00C3
:1007B8008A152B258A11831203133B08C9003A08AE
:1007C800C8000310C80DC90D81304907FF00123059
:1007D800480784000318FF0A8A1100218A11CA00F9
:1007E8008A110021CB006308CC004C07A03E84008E
:1007F8004A0883138000840A4B08800008005208C6
:10080800C800C9010310C80DC90D4808D83ECA0060
:1008180049080318013EFF3ECB0081304B07FF001B
:1008280012304A0784000318FF0A8A1100218A112E
:10083800CC008A110021CD006308CE004E07A03EEF
:1008480084004C0883138000840A4D088000080047
:10085800831203132D08B3002E08B4002F08B50027
:100868000310340D350DB6003608B9003008B30052
:100878003108B4003208B5000310340D350DB60048
:100888003608B80039080319552C380839020318F6
:100898005C2C3903FF3A3807B30019303302031CC4
:1008A8005C2C3008AD003108AE003208AF000800FB
:1008B8003808031908003908380203186B2C380364
:1008C800FF3A3907B300193033020318080006301D
:1008D800B3003308B700AF1BB717B21B3717AE17F3
:1008E800FF30AD05FF30AE050030AF05B117FF3062
:1008F800B005FF30B1050030B205380839020318D9
:10090800AB2C01300310B00DB10DB20DFF3E031D2D
:10091800862C0130B802380839060319A62C013094
:10092800B702370807390319A62C852C01300310A4
:10093800AF0CAE0CAD0CFF3E031D9B2C0130B30079
:100948003308B907390838060319D42C9A2C390802
:1009580038020318D42C01300310AD0DAE0DAF0DC5
:10096800FF3E031DB02C0130B902380839060319BF
:10097800D02C0130B702370807390319D02CAF2C17
:1009880001300310B20CB10CB00CFF3E031DC52C96
:100998000130B3003308B80739083806031DC42CE2
:1009A800B71FE62CFF30AD06FF30AE06FF30AF06AE
:1009B8000130AD07003003180130AE0700300318CE
:1009C8000130AF07371FF82CFF30B006FF30B106F3
:1009D800FF30B2060130B007003003180130B1070C
:1009E800003003180130B207B7012D08B0072E08F0
:1009F800031103182E0A031DB1072F08031103184A
:100A08002F0A031DB207B21F1B2DFF30B006FF309F
:100A1800B106FF30B2060130B007003003180130CC
:100A2800B107003003180130B207B701B70A300820
:100A3800A5003108A6003208A7003908B30033081A
:100A4800A8003708B4003408A9008A15BD24831209
:100A580003132508AD002608AE002708AF000800DC
:100A6800831203130618A02D831603132708803A50
:100A7800FF0080307F02031D432D2F30260203180C
:100A8800A02D83120313E701E801611F972D650864
:100A98006604031D5C2D7308AB00AC012B08ED0048
:100AA8002C08EE000130E5070318E60A0030E607D7
:100AB8000130E5070318E60A0030E6076D09AB00C8
:100AC8006E09AC00AB0A0319AC0A73082B07A50022
:100AD8002C0803182C0AA6008A1501228A118312F1
:100AE80003132608803AFF0080307F02031D7E2D05
:100AF8000B302502031C112E831203136608803A5B
:100B0800FF0080307F02031D8B2D1F306502031C00
:100B1800112EE33083120313DF05EE308A11F6201D
:100B28008A11E6300E2E831203135F08E339083862
:100B3800DF00E501E601112E83120313061C112EB6
:100B48000130A5000030A6008A15AE228A11831252
:100B5800031367086804031DCC2D7308AB00AC01B0
:100B68002B08EB002C08EC000130E7070318E80A13
:100B78000030E807EE308A11F6208A11FF308A111A
:100B8800F6208A11831203136B088A11F6208A1142
:100B9800013083120313E7070318E80A0030E80757
:100BA8006B09AB006C09AC00AB0A0319AC0A7308FB
:100BB8002B07A5002C0803182C0AA6008A15012269
:100BC8008A11831203132608803AFF0080307F02BF
:100BD800031DF02D0B302502031C112E8312031365
:100BE8006808803AFF0080307F02031DFD2D1F300A
:100BF8006702031C112EE33083120313DF05EE3066
:100C08008A11F6208A1101308A11F6208A1183127E
:100C1800031373088A11F6208A1183160313270811
:100C2800803AFF0080307F02031D1C2E33302602DD
:100C380003182B2E831603132908803AFF008030EF
:100C48007F02031D292E74302802031C0800E3309C
:100C580083120313DF05EE308A11F6208A11023061
:100C68008A11F6200800013083120313B100003006
:100C7800B200E43084008230FF008A1100218A111A
:100C8800AC0007082C06F0392C068700C830A500F0
:100C98000030A6008A15AE228A1183120313710947
:100CA800AC007209AD00AC0A0319AD0A2C08F43E79
:100CB800AE002D080318013E013EAF003208803A0D
:100CC800B0002F08803A3002031D6C2E2E08310226
:100CD8000318812E013083120313A5000030A600EB
:100CE8008A15AB238A11013083120313B107031845
:100CF800B20A0030B20708304B2E8312031369087A
:100D0800AC002C07E43E840082300318013EFF004B
:100D18008A1100218A11AD0007082D06F0392D0629
:100D28008700C830A5000030A6008A15AE228A11B7
:100D380083120313B101B201831203133208803AFC
:100D4800FF0082307F02031DAB2E303031020318C2
:100D5800C52E003083120313A500A6008A15AB2305
:100D68008A11013083120313B1070318B20A003045
:100D7800B2070830A5000030A6008A15AE228A11F5
:100D8800A02E831203136908AC002C07E43E8400EC
:100D980082300318013EFF008A1100218A11AD003C
:100DA80007082D06F0392D068700C830A500003049
:100DB800A6008A15AE228A1183120313B101B2016B
:100DC8000712831203133208803AAC007208803A83
:100DD8002C02031DF12E7108310203180C2F01306B
:100DE80083120313A5000030A6008A15AB238A11CD
:100DF800013083120313B1070318B20A0030B20797
:100E08000830A5000030A6008A15AE228A11E52E0A
:100E1800831203136908AC002C07E43E8400823077
:100E28000318013EFF008A1100218A11AD0007084E
:100E38002D06F0392D068700F030A5000030A600F9
:100E48008A15AE22F0308312031387050800831237
:100E580003132D08B3002E08B4002F08B5000310A3
:100E6800340D350DB6003608B7003708031D432F7B
:100E78000030AD000030AE000030AF000800300890
:100E8800B3003108B4003208B5000310340D350D35
:100E9800B6003608BC003C08031D592F0030AD00D1
:100EA8000030AE000030AF0008003C087B3EB300C5
:100EB8003308B7072D08B3002E08B4002F08B50073
:100EC80010300310B50CB40CB30CFF3E031D652F96
:100ED8003308B6003608BC003008B3003108B40047
:100EE8003208B50010300310B50CB40CB30CFF3E3B
:100EF800031D772F3308B6003608BC068030B300D0
:100F08003308BC05AE17B117FF30B005FF30B10587
:100F18000030B2050030B8000030B9000030BA0027
:100F28000730B3003308BB002D1CA82F3008B807C2
:100F3800310803110318310A031DB90732080311D8
:100F48000318320A031DBA0701300310AF0CAE0CA8
:100F5800AD0CFF3E031DA92F01300310B00DB10DDC
:100F6800B20DFF3E031DB12F0130BB02031D982FA8
:100F78000930B3003308BB002D1CD02F3008B80748
:100F8800310803110318310A031DB9073208031188
:100F98000318320A031DBA0701300310AF0CAE0C58
:100FA800AD0CFF3E031DD12F01300310BA0CB90C54
:100FB800B80CFF3E031DD92F0130BB02031DC02F03
:100FC8003808A5003908A6003A08A7003708B30072
:100FD8003308A8003C08B4003408A9008A15BD24C9
:100FE800831203132508AD002608AE002708AF00BA
:020FF8000800EF
:1013C4005E3401343C343D3414348A1134258A1596
:1013D4008A113620080064008001840A0406031977
:1013E40000340406EE2983160313811281150B11B0
:1013F4008B160E308312031381008B17080083129F
:101404000313A61F08002509A7002609A800A70A98
:101414000319A80A2708A5002808A60008002430F4
:101424008316031398008030831203139800193035
:101434008316031399008B170B178C120800831261
:1014440003135E083F39003A031908005E083F3968
:10145400A50028302502031808005E083F39A500BE
:10146400A50A5E082506C0392506DE0008000B1D06
:10147400482A0E30810045307002031C432A5F1451
:10148400F0010130A0002008F0070B112408FF0030
:1014940023088A0022088400210E8300FE0E7E0E9B
:1014A4000900831203136F1C5B2A861B5C2A8617B0
:1014B4005C2A8613EF1C602A0616612A06126F1D29
:1014C400672A861A682A8616682A8612EF1D6E2AEB
:1014D400061B0800061708000613080083120313EE
:1014E400B4003408B000B101B2013008A5003108DD
:1014F400A6003208A7008E30B3003308A800A90163
:101504008A15BD24831203132508AD002608AE00F6
:101514002708AF0008000230831603139F004030F1
:10152400831203139F002B08AD00AD0DAD0DAD0D5F
:101534001F082D06C7392D069F001F140330A50070
:101544000030A6008A15AE228A15831203131F15D4
:101554001F19AA2A1E080800831203132608A800CC
:101564002508A70027082804031908009830A900B3
:101574000030AA0029082A040319CA2A0130A90242
:101584000030031CAA03AA0229082A04031DC02A46
:101594000130A7020030031CA803A802B42A831256
:1015A4000313A901AA01251CDD2A2708A90703188A
:1015B400AA0A2808AA0701300310A70DA80DFF3EA8
:1015C400031DDE2A01300310A60CA50CFF3E031DEB
:1015D400E52A25082604031DD52A2A08A600290879
:1015E400A500080083120313B201AE1F002BAD093E
:1015F400AE09AD0A0319AE0AB201B20A2D08A5005C
:101604002E08A600A7018E30B0003008A8003208CA
:10161400B1003108A9008A15BD24831203132508DB
:10162400AD002608AE002708AF000800831203139C
:1016340086018A15F5218A158A1511228A158316C1
:10164400031381172F308500073086008030870010
:101654008312031307160B128B118A1137268A156E
:10166400831203130619382B861C3E2B783059023B
:10167400031C3F2B61173F2B61138A152E278A15F4
:101684008A15E7218A158A1553228A158A11F422AC
:101694008A15013083120313E3070318E40A0030A8
:1016A400E407053063066404031D5A2BE301E401D7
:1016B4001F10322B8312031356080319692B1E3093
:1016C40056020318692B0130A5002508D6075708D0
:1016D400580403197A2B0130580268300319570251
:1016E40003187A2B0130D7070318D80A0030D8071B
:1016F40059080319852B783059020318852B0130BA
:10170400A5002508D9075A080319902BB4305A02AA
:101714000318902B0130A5002508DA075B0803198C
:101724009B2B1E305B0203189B2B0130A500250860
:10173400DB075C085D040319080012305D02C03049
:1017440003195C02031808000130A5002508DB0713
:10175400080083120313AA01AB0125082604031908
:10176400DB2B6908A7002707E43E840082300318B6
:10177400013EFF008A1100218A15A8008A11002168
:101784008A15A9002808AA042908AB040130E9072E
:101794000318EA0A0030EA0707082A06F0392A067D
:1017A4008700083069066A04031D0800E901EA019C
:1017B40008006908A7002707E43E84008230031864
:1017C400013EFF008A1100218A15A8008A11002118
:1017D4008A15A9002808AA042908AB04FF30E907E0
:1017E4000318EA0AFF30EA0707082A06F0392A062E
:1017F4008700690A031D08006A0A031D08000730F0
:10180400E9000030EA00080083120313B101AC1FA1
:10181400122CAB09AC09AB0A0319AC0AB101B10A29
:10182400AE1F1D2CAD09AE09AD0A0319AE0A013075
:10183400AF002F08B106B201B3012B082C04031921
:10184400542CB001B00AAC1B332C01300310AB0D87
:10185400AC0DFF3E031D282C0130AF002F08B0074C
:10186400252C01300310B20DB30DFF3E031D342CA3
:101874002C082E02031D402C2B082D02031C492C7E
:101884002B08AD022C08031CAE03AE023214013047
:101894000310AC0CAB0CFF3E031D4A2C0130B0020C
:1018A400031D332C310803195C2CB209B309B20AA5
:1018B4000319B30A3308AC003208AB000800013046
:1018C400831203135802683003195702031C912C26
:1018D400831603132308803AFF0080307F02031D20
:1018E400752C02302202031C7E2C01308312031358
:1018F400D7000030D800080083120313EF145608F1
:10190400031D872CD601D60A08003C305602031C5E
:101914000800D6010130D7000030D8000800783024
:101924005902031C9D2C6F10D9015A08031D08008D
:10193400DA01DA0A080023305A020318A72C5908DE
:10194400031D08005A08031D0800EF10D6015708AC
:101954005804031DB12C0130D7000030D8002830C2
:101964005A020318BB2C5908031D08005A08031D0A
:1019740008006F1108008312031328080319C72CE9
:10198400270826042504031DDA2C0030A5000030A6
:10199400A6000030A70008000130AA002A08A80702
:1019A40001300310A70CA60CA50CFF3E031DD32C7D
:1019B400FE3027050319F52CCE2C0130AA002A0885
:1019C400A8070130A507003003180130A60700302E
:1019D40003180130A70701300310A70CA60CA50CAF
:1019E400FF3E031DEE2CFF3027050319042DDF2CC9
:1019F4000130A80201300310A50DA60DA70DFF3E6E
:101A0400031DFD2CA61B0A2D023028020318FA2CF4
:101A14002818122DFF30A5057F30A605FF30A70535
:101A24000310A80C2808AA00AB01AC011030031065
:101A3400AA0DAB0DAC0DFF3E031D192D2A08A504FC
:101A44002B08A6042C08A704290803190800A717C3
:101A54000800831203133A08BE003B08BF003C0889
:101A6400C00003103F0D400DC1004108C7004708E6
:101A7400031D452D0030BD000030BC000030BB000C
:101A84000030BA0008003A08BE003B08BF003C081A
:101A9400C00017300310C00CBF0CBE0CFF3E031D6A
:101AA4004C2D3E08C1004108C200BB17FF30BA05E7
:101AB400FF30BB050030BC053A08C3003B08C40036
:101AC4003C08C500C6018E30C702C71F872D4708D2
:101AD400803A8F3E0318772D0030BD000030BC00E3
:101AE4000030BB000030BA00080001300310C60CFF
:101AF400C50CC40CC30CFF3E031D782D0130BE0081
:101B04003E08C7070319A22D772D18304702031C7E
:101B14009F2D0030BD000030BC000030BB00003001
:101B2400BA0008000130BE000310C30DC40DC50D7A
:101B3400C60DBE0B962D0130C7024708031D942D18
:101B440042080319B02DC309C409C509C609C30A4B
:101B54000319C40A0319C50A0319C60A4608BD00B5
:101B64004508BC004408BB004308BA0008008312BF
:101B740003133808BB003908BC003A08BD00031041
:101B84003C0D3D0DBE003E08C3004308031DD12D8E
:101B94000030B5000030B6000030B700080035084A
:101BA400BB003608BC003708BD0003103C0D3D0DDA
:101BB400BE003E08C4004408031DE72D0030B500F4
:101BC4000030B6000030B70008000030C00000301C
:101BD400C1000030C20089304407BB003B08C30287
:101BE4003808BB003908BC003A08BD0010300310A7
:101BF400BD0CBC0CBB0CFF3E031DF92D3B08BE0005
:101C04003E08C4003508BB003608BC003708BD00D8
:101C140010300310BD0CBC0CBB0CFF3E031D0B2E7F
:101C24003B08BE003E08C4068030BB003B08C40528
:101C3400B917FF30B805FF30B9050030BA05B6173B
:101C4400FF30B505FF30B6050030B7051830BB00CE
:101C54003B08BF0001300310C00DC10DC20DFF3E93
:101C6400031D2D2E37083A02031D3E2E3608390275
:101C7400031D3E2E35083802031C4B2E3508B802CE
:101C84003608031C360FB9023708031C370ABA0298
:101C9400401401300310B80DB90DBA0DFF3E031DF9
:101CA4004C2E0130BF02031D2C2E4008A500410814
:101CB400A6004208A7004308BB003B08A80044084C
:101CC400BC003C08A9008A15BD248312031325080F
:101CD400B5002608B6002708B700080083120313CE
:101CE4007208803AFF0080307F02031D7B2EA130F2
:101CF4007102031C0800831203137208803AFF0068
:101D040081307F02031D882EA4307102031808005D
:101D1400831603132008053E83120313AC008316B5
:101D2400031321080318013E003E83120313AD0080
:101D3400AC09AD09AC0A0319AD0A831603132408D0
:101D4400831203132C07AE0083160313250803180C
:101D5400250A831203132D07AF002F08803AFF00D2
:101D640080307F02031DB82E01302E020318D52EB9
:101D7400DC2E013083120313A5000030A6008A155F
:101D8400AB238A15083083120313A5000030A60084
:101D94008A15AE228A15FF3083120313AE07031887
:101DA400AF0AFF30AF07831203132E082F04031D5D
:101DB400092FBB2E831603132908803AFF008030B5
:101DC4007F02031DE72E5F302802031C032F092F17
:101DD400003083120313A500A6008A15AB238A15CD
:101DE400083083120313A5000030A6008A15AE2222
:101DF4008A15013083120313AE070318AF0A0030AB
:101E0400AF07831203132E082F040319EA2E83123B
:101E140003136908AC002C07E43E840082300318E5
:101E2400013EFF008A1100218A15AD0007082D0626
:101E3400F0392D068700F030A5000030A6008A1581
:101E4400AE22F0308312031387052E08F10703181E
:101E5400F20A2F08F2070800831203135F1C08001C
:101E64005F100130F4021F307406031D802F103000
:101E740087060030861B01308A11F6208A1500304F
:101E840083120313061A01308A11F6208A150030D2
:101E940083120313861A01308A11F6208A15003042
:101EA40083120313061801308A11F6208A150030B4
:101EB40083120313861801308A11F6208A15003024
:101EC40083120313061901308A11F6208A1583122E
:101ED400031306088A11F6208A1583120313710866
:101EE4008A11F6208A158312031372088A11F620C8
:101EF4008A15FF308A11F6208A15882F6F18882FCB
:101F04001F307406031D882F1030870683120313B5
:101F14007408031D0800B101B2013208803AFF00C1
:101F240080307F02031D982F053031020318C32F20
:101F34008312031331088A11F6208A1583120313BE
:101F44003108B0003007A03E8400831300088A11D2
:101F5400F6208A1500308A11F6208A150130831282
:101F64000313B1070318B20A0030B2073208803AEB
:101F7400FF0080307F02031DC12F05303102031C96
:101F84009A2F831203135F0CB000300C07398A11A7
:101F9400F6208A1583120313610EB000B00C300CC6
:101FA40001398A11F6208A153D3083120313B000DB
:101FB4003008F4000130F3028A155C238A15831279
:101FC40003137308031D08006F1CEB2F8A1570267A
:101FD4008A153C3083120313B0003008F30001303B
:101FE400F5028A1521228A15831203137508031D2D
:0C1FF40008003C30B0003008F500080088
:02400E00A1FF10
:00000001FF
