:040000008A11112828
:10000800FE00030E83120313CC000408CD000A0877
:10001800CE007F08CF008A15572D8A111328831325
:10002800203084004B308A151D258A118A15122527
:100038008A11DF008A1513258A11E0008A15142514
:100048008A11E1008A1515258A11E2008A151625FC
:10005800E30083018A15AF2D83120313390CD100F5
:10006800510C0739003A031D3C288A15F32608006D
:1000780083120313390CD100510C0739003A0319C4
:1000880008003A1D9F28EE308A1525258A11DF3091
:100098008A1525258A11831203133A1E65281E30F6
:1000A8003502031C5C283A123A11B50149140800BC
:1000B80019303502031C6228C91108004910491576
:1000C800080012303702C13003193602031C7028A9
:1000D8003A16B501B50A080000303702793003191D
:1000E8003602031C88282108803AFF0080307F02EE
:1000F800031D80280B302002031C88288312031359
:100108003A16B501B50A0800003083120313370206
:100118003D3003193602031C9328491408000030A7
:1001280037021F3003193602031C9C28C915080022
:10013800491049110800783034020318A6283408F9
:10014800031D0800C91138083F39D1002830510271
:10015800031CCE282108803AFF007F307F02031D50
:10016800B728FF302002031808008312031323085E
:10017800803AFF0080307F02031DC428023022022B
:1001880003180800831203133A150130B600003033
:10019800B70008001E303002031CE3284914330856
:1001A800031DD828B301B30AB40138083F39003A0F
:1001B800031D08003808C0390138B8000800193094
:1001C8003002031CE92849150800C914B101B2011D
:1001D8003008031D0800B001B00A08008316031395
:1001E800811281150B118B160E30831203138100B7
:0401F8008B17080059
:10020000FF1B0A2983137F1883170008840A031928
:10021000FF0A08007F087F398A000408840A03194E
:10022000FF0A8200D834FF34D834FF34D834FF3486
:10023000D834FF34D834FF34D834FF34D834FF34C2
:10024000D834FF34D834FF34D834FF34D934FF34B1
:10025000DA34FF34DB34FF34DD34FF34DE34FF3492
:10026000E034FF34E134FF34E234FF34E334FF346C
:10027000E434FF34E534FF34E634FF34E734FF344C
:10028000E834FF34E934FF34EA34FF34EB34FF342C
:10029000EC34FF34EC34FF34ED34FF34EE34FF340F
:1002A000EF34FF34EF34FF34F034FF34F134FF34F3
:1002B000F134FF34F234FF34F334FF34F334FF34D9
:1002C000F434FF34F434FF34F534FF34F534FF34C0
:1002D000F634FF34F734FF34F734FF34F834FF34A6
:1002E000F834FF34F934FF34F934FF34FA34FF348E
:1002F000FA34FF34FB34FF34FB34FF34FC34FF3476
:10030000FC34FF34FD34FF34FD34FF34FE34FF345D
:10031000FF34FF34FF34FF34003400340034003441
:100320000134003401340034023400340234003427
:100330000234003403340034033400340434003411
:1003400004340034043400340534003405340034FB
:1003500006340034063400340734003407340034E3
:1003600008340034083400340834003409340034CC
:10037000093400340A3400340A3400340A340034B6
:100380000B3400340B3400340C3400340C3400349F
:100390000C3400340D3400340D3400340E34003489
:1003A0000E3400340E3400340F3400340F34003473
:1003B000103400341034003410340034113400345C
:1003C0001134003412340034123400341234003446
:1003D000133400341334003414340034143400342F
:1003E000143400341534003415340034153400341A
:1003F0001634003416340034163400341734003404
:1004000017340034183400341834003419340034EC
:1004100019340034193400341A3400341A340034D6
:100420001A3400341B3400341B3400341C340034C0
:100430001C3400341D3400341D3400341E340034A8
:100440001E3400341E3400341F3400341F34003492
:10045000203400342034003420340034213400347B
:100460002134003422340034223400342234003465
:10047000233400342334003424340034243400344E
:100480002534003425340034263400342634003436
:10049000273400342734003428340034283400341E
:1004A0002934003429340034293400342A34003407
:1004B0002A3400342A3400342B3400342C340034F1
:1004C0002C3400342C3400342D3400342E340034D9
:1004D0002E3400342E3400342F34003430340034C1
:1004E00031340034313400343234003432340034A6
:1004F000333400343334003434340034343400348E
:100500003534003435340034363400343734003474
:10051000373400343834003438340034393400345B
:100520003A3400343B3400343B3400343C3400343F
:100530003D3400343D3400343E3400343F34003424
:100540003F34003440340034413400344234003409
:1005500042340034433400344434003445340034ED
:1005600046340034473400344834003449340034CD
:100570004A3400344A3400344B3400344C340034B0
:100580004D3400344F34003450340034513400348E
:10059000523400345334003454340034563400346C
:1005A00057340034583400345A3400345B34003447
:1005B0005C3400345E340034603400346134003420
:1005C00063340034653400346734003469340034F3
:1005D0006A3400346D3400346E34003471340034C5
:1005E0007334003476340034783400347B3400348F
:1005F0007E34003483340034863400348C34003448
:1006000090340034933400349434003495340034FE
:1006100096340034963400349634003496340034E2
:1006200096340034D734FF34D734FF34D834FF3411
:10063000E034FF34E634FF34EA34FF34EE34FF3480
:10064000F134FF34F334FF34F634FF34F834FF343C
:10065000FA34FF34FB34FF34FD34FF34FF34FF340D
:1006600000340034023400340334003404340034E1
:1006700005340034063400340834003409340034BE
:100680000A3400340B3400340C3400340D3400349C
:100690000D3400340E3400340F3400341034003480
:1006A0001134003411340034123400341334003463
:1006B0001434003414340034153400341634003447
:1006C000173400341734003418340034193400342B
:1006D000193400341A3400341A3400341B34003412
:1006E0001C3400341C3400341D3400341D340034F8
:1006F0001E3400341F3400341F34003420340034DE
:1007000020340034213400342134003422340034C5
:1007100022340034233400342334003424340034AD
:100720002434003425340034253400342634003495
:10073000263400342734003427340034283400347D
:100740002834003429340034293400342A34003465
:100750002A3400342B3400342B3400342C3400344D
:100760002C3400342D3400342D3400342E34003435
:100770002E3400342E3400342F3400342F3400341F
:100780003034003430340034313400343134003407
:1007900032340034323400343234003433340034F0
:1007A00033340034343400343434003435340034D9
:1007B00035340034363400343634003436340034C2
:1007C00037340034373400343834003438340034AB
:1007D0003934003439340034393400343A34003494
:1007E0003A3400343B3400343B3400343C3400347D
:1007F0003C3400343D3400343D3400343D34003466
:100800003E3400343E3400343F3400343F3400344E
:100810004034003440340034403400344134003437
:100820004134003442340034423400344334003420
:100830004334003444340034443400344434003409
:1008400045340034453400344634003446340034F2
:1008500047340034473400344834003448340034DA
:1008600049340034493400344A3400344A340034C2
:100870004B3400344B3400344B3400344C340034AB
:100880004C3400344D3400344D3400344E34003494
:100890004E3400344F3400344F340034503400347C
:1008A0005034003451340034513400345234003464
:1008B000523400345334003454340034543400344B
:1008C0005534003455340034563400345634003432
:1008D000573400345734003458340034583400341A
:1008E000593400345A3400345A3400345B34003400
:1008F0005B3400345C3400345D3400345D340034E7
:100900005E3400345E3400345F34003460340034CC
:1009100060340034613400346234003462340034B2
:100920006334003464340034653400346534003496
:10093000663400346734003467340034683400347B
:10094000693400346A3400346B3400346B3400345E
:100950006C3400346D3400346E3400346F34003441
:100960007034003471340034723400347234003422
:100970007334003474340034753400347634003405
:1009800078340034793400347A3400347B340034E1
:100990007C3400347D3400347E34003480340034C0
:1009A000813400348234003484340034853400349B
:1009B00087340034883400348A3400348B34003473
:1009C0008D3400348F340034913400349334003447
:1009D0009534003495340034953400349534003423
:1009E0009534003495340034953400349534003413
:1009F0009534003495340034953400349534003403
:100A00009534003495340034083400340C34003408
:100A10000434003406340034023400340334003427
:100A20000134003409340034013083120313DC0034
:100A30000030DD00043084008530FF008A11002181
:100A40008A11D70007085706F03957068700C830C3
:100A5000D0000030D1008A11C9278A1183120313F4
:100A60005F09D7006009D800D70A0319D80A5708C8
:100A7000F43ED90058080318013E013EDA005D0833
:100A8000803ADB005A08803A5B02031D492D590861
:100A90005C0203185E2D013083120313D000003076
:100AA000D1008A1598268A11013083120313DC07BE
:100AB0000318DD0A0030DD070830282D83120313E8
:100AC0004308D7005707043E840085300318013ED1
:100AD000FF008A1100218A11D80007085806F03952
:100AE00058068700C830D0000030D1008A11C927CD
:100AF0008A1183120313DC01DD01831203135D08E5
:100B0000803AFF0082307F02031D882D30305C0266
:100B10000318A22D003083120313D000D1008A15D0
:100B200098268A11013083120313DC070318DD0AAB
:100B30000030DD070830D0000030D1008A11C9270D
:100B40008A117D2D831203134308D7005707043EF3
:100B5000840085300318013EFF008A1100218A11AC
:100B6000D80007085806F03958068700C830D0006A
:100B70000030D1008A11C9278A1183120313DC01C6
:100B8000DD010712831203135D08803AD700600865
:100B9000803A5702031DCE2D5F085C020318E92D31
:100BA000013083120313D0000030D1008A1598263B
:100BB0008A11013083120313DC070318DD0A0030A9
:100BC000DD070830D0000030D1008A11C9278A1112
:100BD000C22D831203134308D7005707043E840035
:100BE00085300318013EFF008A1100218A11D800C8
:100BF00007085806F03958068700F030D00000305A
:100C0000D1008A11C927F030831203138705080029
:100C1000831203130618722EC101C2013B1F5C2E02
:100C20003F084004031D212E6108D600D701560855
:100C3000C7005708C8000130BF070318C00A0030BA
:100C4000C0070130BF070318C00A0030C0074709BA
:100C5000D6004809D700D60A0319D70A61085607F3
:100C6000D00057080318570AD1008A152F258A117A
:100C7000831203135108803AFF0080307F02031D66
:100C8000432E0B305002031CD12E83120313400855
:100C9000803AFF0080307F02031D502E1F303F023C
:100CA000031CD12EE33083120313B905EE308A15ED
:100CB00025258A11E630CE2E831203132708803AA9
:100CC000FF0080307F02031D672E35302602031897
:100CD000D12E831203133908E3390838B900BF0154
:100CE000C001D12E061CD12E0130D0000030D10021
:100CF0008A11C9278A118312031341084204031D74
:100D00008E2E6108D600D7015608C5005708C600C8
:100D10000130C1070318C20A0030C2070130C10701
:100D20000318C20A0030C2074509D6004609D70099
:100D3000D60A0319D70A61085607D00057080318C6
:100D4000570AD1008A152F258A11831203135108DF
:100D5000803AFF0080307F02031DB02E0B3050021E
:100D6000031CD12E831203134208803AFF00803007
:100D70007F02031DBD2E1F304102031CD12EE33024
:100D800083120313B905EE308A1525258A11013027
:100D90008A1525258A118312031361088A152525D2
:100DA0008A11831203132708803AFF0080307F02E4
:100DB000031DDC2E3B3026020318EB2E8312031397
:100DC0002908803AFF0080307F02031DE92E74302D
:100DD0002802031C0800E33083120313B905EE3028
:100DE0008A1525258A1102308A15252508008312C7
:100DF0000313391C080039100130E2021F3062066B
:100E0000031D492F103087060030861B01308A15DC
:100E100025258A11003083120313061A01308A1522
:100E200025258A11003083120313861A01308A1592
:100E300025258A11003083120313061801308A1504
:100E400025258A11003083120313861801308A1574
:100E500025258A11003083120313061901308A15E3
:100E600025258A118312031306088A1525258A1160
:100E7000831203135F088A1525258A118312031331
:100E800060088A1525258A11FF308A1525258A11C3
:100E9000512F4918512F1F306206031D512F10305A
:100EA0008706831203136208031D08006D308A153C
:100EB00025258A116D308A1525258A118312031381
:100EC000DC01DD015D08803AFF0080307F02031DF8
:100ED0006B2F05305C0203188C2F831203135C0800
:100EE000DB005B07203E8400831300088A1525255C
:100EF0008A11013083120313DC070318DD0A003066
:100F0000DD075D08803AFF0080307F02031D8A2FD5
:100F100005305C02031C6D2F83120313390CDB00B8
:100F20005B0C07398A1525258A11831203133B0EA2
:100F3000DB00DB0C5B0C01398A1525258A113D305D
:100F400083120313DB005B08E2000130E1028A1523
:100F5000F3258A11831203136108031D0800491C3D
:100F6000B42F8A1550278A113C3083120313DB00FB
:100F70005B08E1000130E3028A153F258A118312E4
:100F800003136308031D08003C30DB005B08E3002B
:100F90000800831203135108D3005008D2005208EE
:100FA0005304031908009830D4000030D5005408C9
:100FB00055040319E52F0130D4020030031CD5037A
:100FC000D50254085504031DDB2F0130D202003036
:100FD000031CD303D302CF2F2430831603139800AE
:100FE000803083120313980019308316031399007D
:080FF0008B170B178C1208008F
:101A24005E3401343C343D3414348A1108268A155A
:101A34008A113020080064008001840A0406031916
:101A4400003404061E2D83120313D000500899009D
:101A540083160313981808002A2D83120313D11F29
:101A640008005009D2005109D300D20A0319D30A3D
:101A74005208D0005308D100080083120313380819
:101A84003F39003A0319080038083F39D00028309C
:101A940050020318080038083F39D000D00A38082B
:101AA4005006C0395006B80008000B1D662D0E30D4
:101AB400810045304A02031C612D3914CA010130EA
:101AC400CB004B08CA070B114F08FF004E088A00D1
:101AD4004D0884004C0E8300FE0E7E0E0900831216
:101AE4000313491C792D861B7A2D86177A2D8613AC
:101AF400C91C7E2D06167F2D0612491D852D861ABA
:101B0400862D8616862D8612C91D8C2D061B08006F
:101B140006170800061308000230831603139F00FB
:101B24004030831203139F005608D800D80DD80DF7
:101B3400D80D1F085806C73958069F001F140330D4
:101B4400D0000030D1008A11C9278A1583120313EB
:101B54001F151F19AB2D1E080800831203138601DD
:101B64008A11F2208A158A11EC278A158316031329
:101B740081172F308500073086008030870083125C
:101B8400031307160B128B118A1114258A1583125D
:101B940003130619CF2D861CD52D78303302031C70
:101BA400D62D3B17D62D3B138A11F7268A158A1595
:101BB40017258A158A1571258A158A1542268A15CC
:101BC400013083120313BD070318BE0A0030BE0799
:101BD40005303D063E04031DF12DBD01BE011F105D
:101BE400C92D8312031330080319002E1E3030024E
:101BF4000318002E0130D0005008B0073108320419
:101C04000319112E0130320268300319310203180E
:101C1400112E0130B1070318B20A0030B20733089D
:101C240003191C2E7830330203181C2E0130D00007
:101C34005008B30734080319272EB43034020318AC
:101C4400272E0130D0005008B40735080319322E6E
:101C54001E3035020318322E0130D0005008B5076B
:101C6400360837040319080012303702C03003194C
:101C74003602031808000130D0005008B5070800E8
:101C840083120313DE013E08D7003D08D6008A15EF
:101C94008E258A1583120313D9005908DE000430F7
:101CA4003D063E04031D772E5E08D900DA010310B9
:101CB400D90DDA0D83305A07FF001230590784001A
:101CC4000318FF0A8A1100218A15DB008A110021FA
:101CD400DC003D08DD005D07203E84005B088313C3
:101CE4008000840A5C08800008005E08D900DA01DC
:101CF4000310D90DDA0D81305A07FF00123059074D
:101D040084000318FF0A8A1100218A15DB008A1156
:101D14000021DC003D08DD005D07203E84005B08F7
:101D240083138000840A5C08800008008312031374
:101D3400D501D601500851040319C82E4308D20016
:101D44005207043E840085300318013EFF008A11C7
:101D540000218A15D3008A1100218A15D400530862
:101D6400D5045408D6040130C3070318C40A00304C
:101D7400C40707085506F03955068700083043069E
:101D84004404031D0800C301C40108004308D20031
:101D94005207043E840085300318013EFF008A1177
:101DA40000218A15D3008A1100218A15D400530812
:101DB400D5045408D604FF30C3070318C40AFF30FF
:101DC400C40707085506F03955068700430A031D62
:101DD4000800440A031D08000730C3000030C40093
:101DE40008000130831203133202683003193102F0
:101DF400031C1D2F2308803AFF0080307F02031D3F
:101E0400052F02302202031C0B2F0130831203130F
:101E14001A2F83120313C9143008031D142FB001A1
:101E2400B00A1D2F3C303002031C1D2FB0010130BD
:101E3400B1000030B20078303302031C302F491057
:101E4400B30138083F39003A03192A2FC030B805C6
:101E54003408031D0800B401B40A08002330340216
:101E640003183A2F3308031D08003408031D080023
:101E7400C910B00131083204031D442F0130B100F0
:101E84000030B2002830340203184E2F3308031DEB
:101E940008003408031D08004911080083120313C5
:101EA4006008803AFF0080307F02031D5B2FA13061
:101EB4005F02031C0800831203136008803AFF00CA
:101EC40081307F02031D682FA4305F0203180800CD
:101ED400831203132008053ED70021080318013E8E
:101EE400003ED800D709D809D70A0319D80A24080C
:101EF4005707D90025080318250A5807DA005A0895
:101F0400803AFF0080307F02031D8A2F013059027E
:101F14000318A72FAE2F013083120313D000003013
:101F2400D1008A1598268A15083083120313D0002D
:101F34000030D1008A11C9278A15FF308312031398
:101F4400D9070318DA0AFF30DA0783120313590892
:101F54005A04031DDB2F8D2F831203132908803AA3
:101F6400FF0080307F02031DB92F5F302802031C5D
:101F7400D52FDB2F003083120313D000D1008A1534
:101F840098268A15083083120313D0000030D1003C
:101F94008A11C9278A15013083120313D90703183C
:101FA400DA0A0030DA078312031359085A040319B2
:101FB400BC2F831203134308D7005707043E840041
:101FC40085300318013EFF008A1100218A15D800CC
:101FD40007085806F03958068700F030D000003062
:101FE400D1008A11C927F0308312031387055908D9
:0C1FF400DF070318E00A5A08E0070800A5
:02400E00A1FF10
:00000001FF
